:03000000020100FA
:030003000203FAFB
:03000B000203FDF0
:03001300020406DE
:03001B0002040ECE
:100100001207F112014F1202D0E57BB4000221194F
:10011000B40102212100020106D209120168020481
:100120002DD209120190020589C2A0C2A1C2A275F6
:100130009001319A759038319F319A75900C319FAA
:10014000319A759006319F319A759001319F221234
:1001500001299001CA1201A812019A7590C01201DA
:100160009F9001DB1201A8221201299001EB1201DC
:10017000A82212012990020B1201A8221201299033
:10018000021B1201A82212012990022B1201A8229F
:100190001201299001FB1201A822C2A0C2A122D201
:1001A000A231C2C2A231C2227900E99331B309B4AB
:1001B00020F822D2A0C2A1F590D2A231C2C2A231AF
:1001C000C2227AFF000000DAFB224B4B313A506921
:1001D000616E6F20202020202020204B323A4D7568
:1001E0007369635F506C6179657220505069616E0C
:1001F0006F202020202020202020204343686F6F84
:1002000073655F335F345F352020205454776F5F10
:1002100054696765727320202020204F4F6E6C79DF
:100220005F4D6F6D202020202020204848754D759F
:100230004D77512020202020202020757A620075E3
:10024000850075843FE584B43F0302042D743FF5B7
:10025000847400F58500E584543F30E01130E113EB
:1002600030E21530E31730E41930E51B80DF75F01C
:1002700000801975F001801475F002800F75F0038D
:10028000800A75F004800575F005800074C0F5845F
:1002900074FFF58500E58454C030E61530E716E5B7
:1002A0008554FF30E01330E11430E21530E316805E
:1002B000DB7C0080147C0180107C02800C7C03803D
:0302C000087C04B3
:1002C30080047C0580007406A42CF57A22757B6279
:1002D3000075850075843FE584B43F03020106740D
:1002E3003FF5847400F58500E584543F30E0113018
:1002F300E11330E21530E31730E41930E51B80DFFA
:1003030075F000801975F001801475F002800F7587
:10031300F003800A75F004800575F005800074C051
:10032300F58474FFF58500E58454C030E61530E7A5
:1003330016E58554FF30E01330E11430E21530E365
:100343001680DB7C0080147C0180107C02800C7C96
:100353000380087C0480047C0580007406A42CF5CB
:100363007B22757C620075850075843FE584B43F0C
:1003730003020589743FF5847400F58500E5845410
:100383003F30E01130E11330E21530E31730E41968
:1003930030E51B80DF75F000801975F0018014755E
:1003A300F002800F75F003800A75F004800575F084
:1003B30005800074C0F58474FFF58500E58454C09E
:1003C30030E61530E716E58554FF30E01330E114CD
:1003D30030E21530E31680DB7F0080147F0180104C
:1003E3007F02800C7F0380087F0480047F058000E8
:1003F3007406A42FF57C22C2093285318C85328A9A
:0B040300B2A33220A302B2A3B2A932C0
:10040E00C0E0E535B4000BC28CC28EC211C2100220
:10041E00042914F53585338D85348BD0E0322230A6
:10042E0009FC757A6212023BE57AB40003020514E8
:10043E00B40103020514B40203020514B40303024B
:10044E000514B40403020514B40503020514B4061E
:10045E0003020514B40703020514B40803020514BD
:10046E00B40903020514B40A03020514B40B030203
:10047E000514B40C03020514B40D03020514B40ED6
:10048E0003020514B40F03020514B410030205147D
:10049E00B41103020514B41203020514B4130302BB
:1004AE000514B41403020514B41503020514B4168E
:1004BE0003020514B41703020514B418030205143D
:1004CE00B41903020514B41A03020514B41B030273
:1004DE000514B41C03020514B41D03020514B41E46
:1004EE0003020514B41F03020514B42003020514FD
:1004FE00B42103020514B42203020514B42303022B
:10050E0001000002042DE57A75F002A4F53690057F
:10051E004193F531F58C0536E53693F532F58AD2F1
:10052E008C75850075843FE584B43FF5C28CD2A3EB
:10053E0002042DF117F1E6F2B7F371F42AF4CFF5B8
:10054E0071F609F696F71FF79EF818F888F8F3F982
:10055E0058F9B8FA13FA67FAB9FB04FB4DFB90FB96
:10056E00CFFC0CFC44FC7AFCADFCDDFD09FD34FD3A
:10057E005CFD82FDA6FDC8FDE8FE0685318C853248
:10058E008A7533DF7534737C00120365E57CB40322
:10059E00061201720205BBB4040612017C020601AA
:1005AE00B405061201860206490002058990069FCF
:1005BE0030091A30A9FDEC93F5310C1205FAEC93C3
:0F05CE00F53264FF7008E53164FF020106220C6C
:1005DD001205FAEC93F535D2AFD2A9D2ABD28CD2AB
:1005ED008ED2102010FD0C1205FA0205BEECB400DF
:1005FD000205832290070230091C30A9FDEC93F50A
:10060D00310C120642EC93F53264FF700AE5316449
:10061D00FF70E1020106220C120642EC93F535D271
:10062D00AFD2A9D2ABD28CD28ED2102010FD0C122B
:10063D000642020604ECB400BA0583229007673027
:10064D00091C30A9FDEC93F5310C12068AEC93F5DB
:10065D003264FF700AE53164FF70E1020106220C7D
:10066D0012068AEC93F535D2AFD2A9D2ABD28CD289
:10067D008ED2102010FD0C12068A02064CECB4002E
:10068D0002058322F888F958FA13FA67FB04FB90E8
:10069D00FC0CF88808F95808FA1308F88808F88847
:1006AD0008F95808FA1308F88808FA1308FA6708C1
:1006BD00FB0410FA1308FA6708FB0410FB0404FB93
:1006CD009004FB0404FA6704FA1308F88808FB0485
:1006DD0004FB9004FB0404FA6704FA1308F8880875
:1006ED00F88808FB0408F88810F88808FB0408F857
:1006FD008810FFFF04FB900CFB0404FA1308FB04A5
:10070D0008F88808FB9004FB0404FB9010FA13080A
:10071D00FB0404FB9004FB0408FA1308F88804FB9F
:10072D009004FB0404FA1304F95810F9580CFA1349
:10073D0004FB0408FB0404FB9004FA1308F95808A1
:10074D00F88810FB040CFA1304F95804F88804FB1C
:10075D009004F88804FB0420FFFFF88808F8880847
:10076D00FA1310F88804F88808FA1304F88810FBB7
:10077D009008FB9008FB9004FB0404FB9008FB041D
:10078D0004F88808FA130CF85808F88804FB90044C
:10079D00FB9004FB0404FB9010FB0404F88808F99B
:1007AD00580CFC0C08FC0C10FB0408FA1308FB0495
:1007BD0020FFFF75FFDE75FFAD22758E087588056C
:1007CD00758911758B73758DDF2275A4FF75A5FF66
:1007DD0075A6FF75A7FF75B5FF75E21475E3402289
:1007ED0075A88F221207C01207C71207D71207ED7F
:0107FD0022D9
:00000001FF
